:040000008A11DD2F55
:10000A0083120313861E0A280B281D2802306D024C
:10001A00031C102811281D286D0883160313B3002A
:10002A00013083120313ED0283160313B701B70AD3
:10003A008312061E2128222846286D080C3EE60057
:10004A00003003180130E7006708803AFF0080306B
:10005A007F02031D32285E306602031835283628CF
:10006A004628831203136D0883160313B300013065
:10007A0083120313E6006608ED0783160313B7011C
:10008A00B70A8A1507248A118A117E238A118A11CE
:10009A00FA208A11080083120313AA002A08803A58
:1000AA007F3E031C59285A28F9282A082007FA00F3
:1000BA00FB010318FB0AAA1F6328FB03A01F66287B
:1000CA00FB037A08FF3EFC007B080318013EFF3E53
:1000DA00FD007D08803AFF0080307F02031D7728EB
:1000EA005F307C0203187A287B28F92883120313CD
:1000FA002108803A7F3E031C83288428F928220895
:10010A002107FA00FB010318FB0AA11F8D28FB0334
:10011A007A08FF3EFC007B080318013EFF3EFD0003
:10012A007D08803AFF0080307F02031D9E287F30C1
:10013A007C020318A128A228F9288A1561218A11AC
:10014A008312031320082A07FF3EA500220821076D
:10015A00FF3EA6002108F200F301F21BF3032A086E
:10016A00F400F501F41BF5032608FA00FB017A08EE
:10017A00F6007B08F7002508FC00FD017C08F80062
:10018A007D08F9008A155C228A118312031322085A
:10019A00F00020088A1501228A1183120313A7008E
:1001AA00A801A901E928831203132408F2002308ED
:1001BA00F1008A159C218A11013083120313A807C2
:1001CA000318A90A0030A9072908803AFA008030E2
:1001DA007A02031DF22827082802031CF528F628AC
:1001EA00D8288A155D218A110800831203136B0A25
:1001FA00031D03296C0A031D032904294A296F08D0
:10020A00FF3EF000FF3003180030F1001230700694
:10021A007104031D112912294A296E08013EF000B2
:10022A00003003180130F1007108803AF200803082
:10023A007202031D22296D087002031C2529262932
:10024A004A29831203136E08FF3EF000FF30031899
:10025A000030F1006D080C3EF20000300318013046
:10026A00F3007308803AF4007108803A7402031D9F
:10027A00402970087202031C432944294A29013083
:10028A0083120313EB000030EC00831203136B0A92
:10029A00031D53296C0A031D53295429A7296F08E2
:1002AA00013EF000003003180130F1007108803A75
:1002BA00FF0080307F02031D642910307002031C86
:1002CA0067296829A729831203136F08FF3EF000E4
:1002DA00FF3003180030F1007108803AFF008030C7
:1002EA007F02031D7A291330700203187D297E29A3
:1002FA00A729831203136D080D3EF000003003187E
:10030A000130F1006E087006710403198D298E29D7
:10031A0094296E086D06031D93299429A729690358
:10032A006A04031999299A299F290130E9000030A2
:10033A00EA00A329FF30E900FF30EA000130EB00B0
:10034A000030EC0008007308803983120313A00000
:10035A007308F4007407A600F21FB429B529B62958
:10036A0026142608F400F5017408AB007508AC00E1
:10037A00FF307005B100FF307105B2007F307205A1
:10038A00B30000307305B4002B082C040319CE29DE
:10039A00CF29D629B3172B0A2C04031DD529D62910
:1003AA00DE290030B4000030B3000030B200003063
:1003BA00B1002B082C04031DE329E429ED290030A0
:1003CA00F3000030F2000030F1000030F0007D2B25
:1003DA0020080319F129F2290F2A0030B000403011
:1003EA00AF000030AE000030AD008030AF04FF3007
:1003FA00B004213083160313B4000030B500831211
:10040A0003133008F3002F08F2002E08F1002D081C
:10041A00F0007D2B2B0A2C04031D142A152A262AE8
:10042A007F30B0008030AF000030AE000030AD0049
:10043A003008F3002F08F2002E08F1002D08F00012
:10044A007D2B8130AB070318AC0AFF30AC072B08B1
:10045A000139A6000130FF002C0DAC0CAB0CFF0BD0
:10046A00312A7F30AB070318AC0A0030AC070310FF
:10047A00310DA200320DA300330DA400340DA500E6
:10048A000030B4000030B3000030B2000030B100D8
:10049A000130AA000030A9000030A8000030A700EF
:1004AA0026080319592A5A2A632A0130F40003102C
:1004BA00A20DA30DA40DA50DF40B5C2AA101DB2A44
:1004CA002708B1042808B2042908B3042A08B40486
:1004DA0034082502031D7B2A33082402031D7B2AC4
:1004EA0032082302031D7B2A31082202031C7E2ABA
:1004FA007F2AA52A3108A2023208031C320FA3025E
:10050A003308031C330FA4023408031C340FA5025A
:10051A002708B107280803110318013E0319962A70
:10052A00B207290803110318013E03199D2AB307CC
:10053A002A0803110318013E0319A42AB407B52A8D
:10054A002709F4002809F5002909F6002A09F70005
:10055A007408B1057508B2057608B3057708B405BD
:10056A002708F4002808F5002908F6002A08F700E9
:10057A0001300310F70CF60CF50CF40CFF3E031DCA
:10058A00BE2A7708AA007608A9007508A800740888
:10059A00A7000130F4000310A20DA30DA40DA50DB0
:1005AA00F40BD02A0130F4007408A1071930210293
:1005BA00031CE02AE12A652A3108F4003208F50012
:1005CA003308F6003408F70001300310F70CF60C74
:1005DA00F50CF40CFF3E031DEA2A7708B4007608EE
:1005EA00B3007508B2007408B10001303105A700E4
:1005FA0000303205A80000303305A9000030340568
:10060A00AA003108F4003208F5003308F60034086D
:10061A00F70001300310F70CF60CF50CF40CFF3E52
:10062A00031D0F2B7708B4007608B3007508B200D3
:10063A007408B1002708B107280803110318013EFE
:10064A000319282BB207290803110318013E0319BD
:10065A002F2BB3072A0803110318013E0319362B5F
:10066A00B407341C392B3A2B592B3108F4003208C1
:10067A00F5003308F6003408F70001300310F70CD0
:10068A00F60CF50CF40CFF3E031D432B7708B4005F
:10069A007608B3007508B2007408B1000130AB07E0
:1006AA000318AC0A0030AC07FF303105AD00FF304B
:1006BA003205AE007F303305AF0000303405B0009C
:1006CA002B08A600261C6A2B6B2B6C2BAF1726084F
:1006DA00F4000310740CB0007F30F4007408B00505
:1006EA003008F3002F08F2002E08F1002D08F00060
:1006FA000800831203136B036C04031D852B862BDE
:10070A00002C6F0883160313BA003F3083120313B9
:10071A00BC008C30BB00CC30BA00CD30B9003F30C1
:10072A00F300F730F2005C30F1002930F0008A1152
:10073A00A8218A11730883120313B8007208B7003C
:10074A007108B6007008B5008A152D268A11831221
:10075A0003133808CD003708CC003608CB0035081B
:10076A00CA00831603132F0883120313D1008316BA
:10077A0003132E0883120313D000831603132D08C4
:10078A0083120313CF00831603132C088312031357
:10079A00CE008A1185258A11831203134D08831608
:1007AA000313AF00831203134C0883160313AE001E
:1007BA00831203134B0883160313AD00831203132A
:1007CA004A0883160313AC002F08F3002E08F20020
:1007DA002D08F1002C08F0008A15B7258A11700837
:1007EA0083120313EF007C306F02031CFD2BFE2BD8
:1007FA00002C7C30EF006B0A031D072C6C0A031DCA
:10080A00072C082C822C6F0883160313BA003F307A
:10081A0083120313BC008C30BB00CC30BA00CD303D
:10082A00B9003F30F300F730F2005C30F1002930B4
:10083A00F0008A11A8218A11730883120313B800E1
:10084A007208B7007108B6007008B5008A152D261F
:10085A008A11831203133808E1003708E0003608CA
:10086A00DF003508DE00831603132F0883120313F3
:10087A00E500831603132E0883120313E40083167C
:10088A0003132D0883120313E300831603132C08A2
:10089A0083120313E2008A1579228A118312031341
:1008AA00610883160313AF008312031360088316CB
:1008BA000313AE00831203135F0883160313AD00FC
:1008CA00831203135E0883160313AC002F08F30088
:1008DA002E08F2002D08F1002C08F0008A15B72521
:1008EA008A11700883120313EF0002306F02031893
:1008FA007F2C802C822CEF01EF0A69036A04031D06
:10090A00872C882C022D6E0883160313B9003F30FA
:10091A0083120313BC005930BB009930BA009A30D5
:10092A00B9003F30F300F730F2005C30F1002930B3
:10093A00F0008A11A8218A11730883120313B800E0
:10094A007208B7007108B6007008B5008A152D261E
:10095A008A11831203133808CD003708CC003608F1
:10096A00CB003508CA00831603132B08831203131E
:10097A00D100831603132A0883120313D0008316A7
:10098A000313290883120313CF00831603132808BD
:10099A0083120313CE008A1185258A118312031349
:1009AA004D0883160313AB00831203134C088316F6
:1009BA000313AA00831203134B0883160313A90017
:1009CA00831203134A0883160313A8002B08F300A3
:1009DA002A08F2002908F1002808F0008A15B7252C
:1009EA008A11700883120313EE005C306E02031C36
:1009FA00FF2C002D022D5C30EE00690A031D092D23
:100A0A006A0A031D092D0A2D842D6E088316031305
:100A1A00B9003F3083120313BC005930BB00993030
:100A2A00BA009A30B9003F30F300F730F2005C3078
:100A3A00F1002930F0008A11A8218A117308831263
:100A4A000313B8007208B7007108B6007008B50041
:100A5A008A152D268A11831203133808E1003708F4
:100A6A00E0003608DF003508DE00831603132B0882
:100A7A0083120313E500831603132A088312031350
:100A8A00E40083160313290883120313E300831671
:100A9A000313280883120313E2008A1579228A11A4
:100AAA0083120313610883160313AB008312031323
:100ABA00600883160313AA00831203135F088316C0
:100ACA000313A900831203135E0883160313A800F5
:100ADA002B08F3002A08F2002908F1002808F00080
:100AEA008A15B7258A11700883120313EE000330A2
:100AFA006E020318812D822D842D0230EE0008002B
:100B0A00831203134D088039DA004D08D2005207C8
:100B1A00DC00CC1F912D922D932D5C145C080319D7
:100B2A00972D982DA82D5C0A031D9C2D9D2DA52D72
:100B3A000030CD000030CC000030CB000030CA00BD
:100B4A00CC17CD01B02D0030CD000030CC000030E4
:100B5A00CB000030CA0051088039DB005B085A0616
:100B6A000319B82DB92DBA2D5A175108D2005207B8
:100B7A00DB00D01FC12DC22DC32D5B145B080319E6
:100B8A00C72DC82DD82D5B0A031DCC2DCD2DD52DF3
:100B9A000030D1000030D0000030CF000030CE004D
:100BAA00D017D101E02D0030D1000030D000003044
:100BBA00CF000030CE005C085B020318E52DE62D5D
:100BCA000C2E5A1FE92DEA2DEE2D8030D200520844
:100BDA00DA065C08DD005B08DC005D08DB004A0819
:100BEA00DD004E08CA005D08CE004B08DD004F0844
:100BFA00CB005D08CF004C08DD005008CC005D0832
:100C0A00D0004D08DD005108CD005D08D100DD019E
:100C1A005B08D200D3015308D5005C085202D40005
:100C2A00031CD5035508803AFF0080307F02031D5C
:100C3A00202E1A305402031C232E242E5B2E8312DC
:100C4A0003134D084C044B044A04031D2D2E2F2E6A
:100C5A000130302E0030DD000030CD000030CC00F5
:100C6A000030CB000030CA005B08DC00632E5D1C3C
:100C7A003F2E402E472E5D08D2000310520C013839
:100C8A00DD00492E0310DD0C4A1C4C2E4D2E4E2E33
:100C9A00DD170130D2004D0DCD0CCC0CCB0CCA0C9B
:100CAA00D20B502E0130D2005208DC0783120313F4
:100CBA005B085C02031C622E632E3C2E5A1B662EB6
:100CCA00672EB02E5C08031D6B2E6C2E752E00301D
:100CDA00CD000030CC000030CB000030CA00DC2F41
:100CEA004E08CA074F0803110318013E03197E2E46
:100CFA00CB07500803110318013E0319852ECC07B0
:100D0A00510803110318013E03198C2ECD074D1CFF
:100D1A008F2E902E642F5D1C932E942E9B2E5D0891
:100D2A00D2000310520C0138DD009D2E0310DD0C99
:100D3A004A1CA02EA12EA22EDD170130D2004D0D85
:100D4A00CD0CCC0CCB0CCA0CD20BA42E0130D20089
:100D5A005208DC07642F4D08803AFF005108803A98
:100D6A007F02031DC22E50084C02031DC22E4F08DB
:100D7A004B02031DC22E4E084A020318C52EC62E68
:100D8A001E2FFF30D200FF30D300FF30D400FF30D7
:100D9A00D5004E08D6004F08D7005008D800510891
:100DAA00D9004A08D6024B08031C4B0FDD2EDE2E53
:100DBA00D7024C08031C4C0FE32EE42ED8024D0830
:100DCA00031C4D0FE92EEA2ED9025608D2075708FE
:100DDA000318570FF12EF22ED30758080318580F8D
:100DEA00F72EF82ED40759080318590AD5075508BB
:100DFA00CD005408CC005308CB005208CA008030FA
:100E0A00D2005208DA06DD09DD0A5D08031D0E2F3D
:100E1A000F2F2C2F0130CA07003003180130CB07DF
:100E2A00003003180130CC07003003180130CD0719
:100E3A002C2F4E08CA024F08031C4F0FCB02500832
:100E4A00031C500FCC025108031C510FCD024D0850
:100E5A004C044B044A04031D332F342F602F5D08C2
:100E6A00031D382F392F602F0030CD000030CC0001
:100E7A000030CB000030CA00DC2F0130D200031052
:100E8A00CA0DCB0DCC0DCD0DD20B442FDD1F4E2F2D
:100E9A004F2F502F4A145D1C532F542F572F0314D2
:100EAA00DD0D592F0310DD0D5C0803195D2F5E2F30
:100EBA00602F0130DC02CC1F632F642F422FDB012D
:100ECA00DD1F682F692F772F5D087F3903196E2F71
:100EDA006F2F722FDB01DB0A772F4A1C752F762FB3
:100EEA00772F6F2F5B0803197B2F7C2FB02F0130D0
:100EFA00CA07003003180130CB070030031801304D
:100F0A00CC07003003180130CD074D1C8D2F8E2FD2
:100F1A00B02F4A08D2004B08D3004C08D4004D0821
:100F2A00D5000130D600550DD50CD40CD30CD20CFB
:100F3A00D60B982F5508CD005408CC005308CB0087
:100F4A005208CA005C0A0319AB2FAC2FB02F01302C
:100F5A00D2005208DC075C0A0319B42FB52FBA2F46
:100F6A005C08031DB92FBA2FC82F0030CD000030FE
:100F7A00CC000030CB000030CA005C08031DC62F2D
:100F8A00C72FC82FDA015C1CCB2FCC2FCE2FCC1742
:100F9A00D22F7F30D2005208CC055C08D200031051
:100FAA00520CCD00DA1FDA2FDB2FDC2FCD17080009
:100FBA008313B430FD000930FE00ED30FF00A0308D
:100FCA0084008A15BC218A117030FD000930FE00A8
:100FDA007D30FF00693084008A15BC218A1183168E
:100FEA000313B401B501B601B701B801B901BA01D9
:060FFA0083018A15C12AE3
:1012BA00831203130614080083120313061008008E
:1012CA00831203130615080083120313061108007C
:1012DA008312031307160800831203130712080068
:1012EA008312031307170800831203130713080056
:1012FA00FF34FF3401340034323437343C34F000E4
:10130A0070088312031393008316031314188E298B
:10131A008F2989290800F1008A1569218A1571081F
:10132A008A1584218A158A1565218A15080072088A
:10133A00F3007108F40073088A1584218A15740869
:10134A008A1584218A1508008316031387178312C6
:10135A000313871394128316031314179413831217
:10136A000313941608007E088A007F0882008A15F3
:10137A00B8218A158000840A04087D0603190034FE
:10138A00FF0A0319FE0ABC29F3008A1561218A158E
:10139A008A1569218A1573088A15EA228A158A1517
:1013AA0065218A158A155D218A150800F1008A15BA
:1013BA0061218A158A1569218A1571088A1584217D
:1013CA008A158A1565218A158A155D218A150800EC
:1013DA009A34993459343F34CD34CC348C343F3434
:1013EA000034003448344234003400347034423417
:1013FA00103403340D343234F300F201731C062A1C
:10140A00072A0B2A7008F1007108F2070310F00D81
:10141A000310F30C7308031D132A142A032A7208F3
:10142A00080083160313861606160D30831203135B
:10143A00A0001030A1000330A200FF30A300FF304B
:10144A00A4006D088A1150208A150800F4008A1534
:10145A0061218A158A1569218A1574088A15EA2272
:10146A008A158A1565218A1573088A15EA228A154A
:10147A008A155D218A150800FE30F200A730F100B6
:10148A006530F000F00B472AF10B472AF20B472A86
:10149A004E2AFE30F200A730F1006530F000F00B62
:1014AA00542AF10B542AF20B542A5B2A08001530ED
:1014BA008A1590218A1572088A1584218A15760858
:1014CA008A1584218A1575308A1590218A1574081F
:1014DA008A1584218A1578088A1584218A155C3030
:1014EA008A1590218A150800803083120313E106B9
:1014FA006508CD006408CC006308CB006208CA0006
:10150A006108D1006008D0005F08CF005E08CE00F5
:10151A008A1185258A15831203134D08E1004C08A8
:10152A00E0004B08DF004A08DE0008008A15802325
:10153A008A15AF308A15C9218A151A308312031306
:10154A00A6005E30A5006E30A400A40BAA2AA50B43
:10155A00AA2AA60BAA2A01308A1545238A158A15B2
:10156A00A9218A158316031387160030FA00FB0097
:10157A008A15F0248A1508008A159B228A158A156D
:10158A0016238A158A1516228A1583120313871EB3
:10159A00CF2AD02ADB2AAE308A15DB218A158A1592
:1015AA0041228A15AF308A15DB218A158A11052056
:1015BA008A15A63083120313E800E80BE22A8A157B
:1015CA00C0238A15CA2A8A110028F000F101F20103
:1015DA00F101F201F01FF22AF32AF72A8A156D2186
:1015EA008A15FA2A8A1571218A158A1575218A158A
:1015FA000310F00D8A1579218A150130F1070318B5
:10160A00F20A0030F2077208803AFF0080307F0247
:10161A00031D112B08307102031C142B152BEF2A02
:10162A0008007F30FA00FB011F30FC000030FD008B
:10163A0000308A1550248A157F30FA005F30FB008B
:10164A001F30FC000030FD0000308A1550248A1536
:10165A006030FA00FB011F30FC000030FD00003052
:10166A008A15A0248A156030FA007F30FB001F30EB
:10167A00FC000030FD0000308A15A0248A150800FD
:10168A00F7002430F800770883160313B8005B2BA1
:10169A007816742B1230F5007508F804742B781438
:1016AA00742B1130F5007508F804742B3808F5000E
:1016BA00F6017608003A0319632B742B7508003A71
:1016CA000319742B013A03194D2B033A03194F2BB3
:1016DA00013A0319542B073A0319562B742B78082D
:1016EA00F300A0308A152B228A15F301A1308A153E
:1016FA002B228A150800831603130610831203137C
:10170A000614831603130611831203130615831690
:10171A000313071383120313071383160313071202
:10172A0083120313071283160313861083120313FB
:10173A0086142130F1007630F000F00BA22BF10B69
:10174A00A22B000083160313061283120313061634
:10175A000730F1007D30F000F00BB12BF10BB12B0B
:10176A008312031386100330F000F00BBA2B831296
:10177A000313861408000330FA008316031339088A
:10178A00FB000030FC00FD003A088A1541258A1545
:10179A000330FA00831203136E08FB000030FC00CA
:1017AA00F830FD006F088A1541258A158316031340
:1017BA003703031DE12BE22BF62B0D3083120313A3
:1017CA00A0001030A1000330A2000030A300A40042
:1017DA008316031333088A1150208A1583160313BC
:1017EA00B7010D3083120313A0001030A10003309B
:1017FA00A200FF30A300FF30A4006D088A11502018
:10180A008A150800831203136B036C04031D0E2C44
:10181A000F2C1A2C7C306F02031C142C152C1A2C3A
:10182A00FF30EB00FF30EC002C2C6B0A031D212C3F
:10183A006C0A031D212C222C2C2C04306F02031855
:10184A00272C282C2C2C0130EB000030EC006903EB
:10185A006A04031D312C322C3D2C5C306E02031CB1
:10186A00372C382C3D2CFF30E900FF30EA004F2C92
:10187A00690A031D442C6A0A031D442C452C4F2C6B
:10188A0003306E0203184A2C4B2C4F2C0130E9000E
:10189A000030EA00080083120313A6008A156121AA
:1018AA008A157A08831203132607FF3EA300260827
:1018BA00F200F301F21BF3037B08F400F501F41BB9
:1018CA00F5032308A000A1012008F6002108F7006B
:1018DA007B08F800F901F81BF9038A155C228A15BE
:1018EA0083120313A401A501892C7D08F2007C0848
:1018FA00F1008A159C218A15013083120313A4076B
:10190A000318A50A0030A5077A08A000A101A01BA8
:10191A00A1032508803AA2002108803A2202031D69
:10192A00982C20082402031C9B2C9C2C7A2C8A15A8
:10193A005D218A15080083120313A6008A15612106
:10194A008A157A08831203132607FF3EA3007B0831
:10195A00F200F301F21BF3032608F400F501F41B6D
:10196A00F5037B08F600F701F61BF7032308A0002E
:10197A00A1012008F8002108F9008A155C228A15BD
:10198A0083120313A401A501D92C7D08F2007C0857
:10199A00F1008A159C218A15013083120313A407CA
:1019AA000318A50A0030A5077A08A000A101A01B08
:1019BA00A1032508803AA2002108803A2202031DC9
:1019CA00E82C20082402031CEB2CEC2CCA2C8A15C8
:1019DA005D218A1508008A1561218A150030F200F6
:1019EA00F3000030F400F5007F30F6000030F70015
:1019FA005F30F8000030F9008A155C228A158312DC
:101A0A000313A201A30183120313A001A1017B08FE
:101A1A00F2007A08F1008A159C218A150130831296
:101A2A000313A0070318A10A0030A1072108803A6E
:101A3A00FF0080307F02031D242D80302002031C0A
:101A4A00272D282D0C2D013083120313A20703180A
:101A5A00A30A0030A3072308803AFF0080307F02E0
:101A6A00031D392D60302202031C3C2D3D2D082D0B
:101A7A008A155D218A15080083120313AA008A15A4
:101A8A0061218A157A08831203132A07FF3EA400EC
:101A9A007A087B07FF3EA5002A08F200F301F21B31
:101AAA00F3037B08F400F501F41BF5032408A000F6
:101ABA00A1012008F6002108F7002508A200A301C9
:101ACA002208F8002308F9008A155C228A15831275
:101ADA000313A801A901A02D83120313A601A701CC
:101AEA00852D7D08F2007C08F1008A159C218A1553
:101AFA00013083120313A6070318A70A0030A707A9
:101B0A007A08A000A101A01BA1032708803AA2001D
:101B1A002108803A2202031D942D20082602031C64
:101B2A00972D982D762D013083120313A8070318D9
:101B3A00A90A0030A9077A08A000A101A01BA103E5
:101B4A002908803AA2002108803A2202031DAF2DFB
:101B5A0020082802031CB22DB32D712D8A155D2190
:101B6A008A1508000310720D730DF9007908031D18
:101B7A00BF2DC02DC92D0030F3000030F200003017
:101B8A00F1000030F0002C2E7008F4007108F50006
:101B9A007208F6007308F7001F300310F70CF60CF2
:101BAA00F50CF40CFF3E031DD22D7408F800F21751
:101BBA00FF30F005FF30F105FF30F2050030F30584
:101BCA009630F902F91FEA2DEB2D052E7908803A95
:101BDA00973E0318F12DF22DF32DC02D013003107D
:101BEA00F30CF20CF10CF00CFF3E031DF42D013046
:101BFA00F4007408F907031D032E042EF32D1C2E7E
:101C0A0020307902031C0A2E0B2E172EC02D01300C
:101C1A00F4000310F00DF10DF20DF30DF40B0E2E7E
:101C2A000130F9027908031D1B2E1C2E0C2E780890
:101C3A000319202E212E2C2EF009F109F209F3099D
:101C4A00F00A0319F10A0319F20A0319F30A080040
:101C5A00831203133C088039C1003C08F800780756
:101C6A00C800BB1F392E3A2E3B2E481448080319C8
:101C7A003F2E402E502E480A031D442E452E4D2E2F
:101C8A000030BC000030BB000030BA000030B900A0
:101C9A00BB17BC01582E0030BC000030BB0000301E
:101CAA00BA000030B90038088039F8007808C1064F
:101CBA003808F8007807C900B71F642E652E662E0B
:101CCA004914490803196A2E6B2E7B2E490A031DF3
:101CDA006F2E702E782E0030B8000030B70000301A
:101CEA00B6000030B500B717B801832E0030B8002F
:101CFA000030B7000030B6000030B50038083704AD
:101D0A0036043504031D8A2E8B2EA42E0030BC0007
:101D1A000030BB000030BA000030B9008030BB048C
:101D2A007F30BC044108F8007808BC043C08B800BD
:101D3A003B08B7003A08B6003908B500FF2F480833
:101D4A00031DA82EA92EB22E0030B8000030B7000D
:101D5A000030B6000030B500FF2F4808F800F9013E
:101D6A007908FB0049087802FA00031CFB037A0889
:101D7A007F3EC2007B080318013E003EC3003C08B8
:101D8A00C0003B08BF003A08BE003908BD00003059
:101D9A00BC000030BB000030BA000030B90000308F
:101DAA00C7000030C6000030C5000030C400C901B9
:101DBA00282F49080319E22EE32E032F0130F800D9
:101DCA000310BD0DBE0DBF0DC00DF80BE52E013081
:101DDA00F8000310B90DBA0DBB0DBC0DF80BEE2EB1
:101DEA00C71FF82EF92EFA2E39140130F800031005
:101DFA00C40DC50DC60DC70DF80BFC2E38084002E0
:101E0A00031D112F37083F02031D112F36083E020A
:101E1A00031D112F35083D02031C142F152F242FE3
:101E2A0047173508BD023608031C360FBE023708AD
:101E3A00031C370FBF023808031C380FC0020130D9
:101E4A00F8007808C9071A304902031C2D2F2E2FD3
:101E5A00DE2E40083F043E043D040319352F362F79
:101E6A00552F4414552F0130F8000310B90DBA0D3F
:101E7A00BB0DBC0DF80B3A2FC71F442F452F462F19
:101E8A0039140130F8000310C40DC50DC60DC70D75
:101E9A00F80B482FFF30C2070318C30AFF30C307E5
:101EAA00BB1F582F592F382FC901C71F5D2F5E2F0F
:101EBA007A2FFF304405F800FF304505F900FF305E
:101ECA004605FA007F304705FB007B087A0479044F
:101EDA0078040319712F722F752FC901C90A7A2F35
:101EEA00391C782F792F7A2F722F490803197E2FE0
:101EFA007F2FB02F0130B907003003180130BA071D
:101F0A00003003180130BB07003003180130BC074A
:101F1A003C1C902F912FB02F3908F8003A08F9008D
:101F2A003B08FA003C08FB000130FC007B0DFB0C6F
:101F3A00FA0CF90CF80CFC0B9B2F7B08BC007A08F6
:101F4A00BB007908BA007808B9000130C207031843
:101F5A00C30A0030C3074308803AFF0080307F027B
:101F6A00031DB92FFF304202031CBC2FBD2FCB2FFC
:101F7A00FF3083120313C2000030C3000030BC00DC
:101F8A000030BB000030BA000030B90083120313DE
:101F9A004308803AFF0080307F02031DD62F0130AC
:101FAA0042020318D92FDA2FE72F83120313C20133
:101FBA00C3010030BC000030BB000030BA00003062
:101FCA00B900C101831203134208C800481CEE2F4E
:101FDA00EF2FF12FBB17F52F7F30F8007808BB05DC
:101FEA004808F8000310780CBC004108F80078088B
:061FFA00BC049B2E080050
:08400000FF3FFF3FFF3FFF3FC0
:02400E00E43F8D
:00000001FF
